S01800004763634170706C69636174696F6E31322E7372656328
S11300000C943E000C94A8040C94DB040C945B0048
S11300100C945B000C945B000C945B000C945B00F0
S11300200C945B000C945B000C945B000C945B00E0
S11300300C945B000C945B000C945B000C945B00D0
S11300400C94B9040C945B000C945B000C945B005E
S11300500C945B000C945B000C945B000C945B00B0
S11300600C945B000C945B000C945B000C945B00A0
S11300700C945B000C945B000C945B0011241FBE79
S1130080CFEFD4E0DEBFCDBF12E0A0E0B1E0E8E501
S1130090F5E102C005900D92A233B107D9F722E031
S11300A0A2E3B2E001C01D92A036B207E1F70E94BC
S11300B074000C94AA0A0C94000014B88FEF85B94C
S11300C080E18AB98FEE8BB98AE08093690083E07E
S11300D08DBB82E084BD95E095BD80936E008CE07D
S11300E00E9453067894089516BC8091000187BD40
S11300F00E945D000E942A0660E080E00E942006C3
S113010080E2E2E1F2E0AEE3B2E001900D928A9582
S1130110E1F78EE392E00E9443062FEF8DE399E42A
S1130120215080409040E1F700C00000CEE3D2E0CF
S11301300F2EF0E0EF2EF1E0FF2EF02D4C2E5D2E71
S11301400F2EF6E5CF2EF1E0DF2EF02D6C2E7D2E56
S113015001ED11E08091360290913702019709F088
S113016058C060910001709101016F5F7F4F7093DF
S1130170010160930001882777FD8095982F0E94E4
S1130180C2062BE237E84EE250E40E944E070E947A
S11301908F0670935F0260935E020E942A0660E0FD
S11301A080E00E94200680915F028F9380915E021E
S11301B08F93A4E0B1E0BF93AF93DF93CF930E94FA
S11301C0D907842D952D0E944306D7018C9187BDB4
S11301D0BFEFE4E3FCE0B150E040F040E1F700C0E1
S11301E000000F900F900F900F900F900F90809140
S11301F0000190910101823491050CF4B2CF82E4A4
S113020090E09093010180930001109237021092C4
S1130210360280913D0281111FC00E942A0660E0CF
S113022080E00E94200681E2E8E1F1E0DE01019035
S11302300D928A95E1F7CE010E9443062FEF81EEDD
S113024094E0215080409040E1F700C0000080918C
S11302503B028130F1F02AC18130C9F70E942A069D
S113026060E080E00E9420068DE1E9E3F1E0DE0138
S113027001900D928A95E1F7CE010E944306AFEFFB
S1130280B1EEE4E0A150B040E040E1F700C000006E
S1130290DECF22242394312C0E942A0660E080E0E1
S11302A00E942006809103018F93809102018F9315
S11302B0DF92CF92DF93CF930E94D907842D952D9F
S11302C00E9443068FEF91EEA4E081509040A0403D
S11302D0E1F700C000000F900F900F900F900F9067
S11302E00F9080913A02813009F0D5C060910201EB
S11302F070910301882777FD8095982F0E94C2068C
S11303002DE637EE4BEB5EE30E944E074B015C019A
S11303106091000170910101882777FD8095982FE5
S11303200E94C206A50194010E944A0788230CF486
S113033059C08091000190910101BC01882777FD8B
S11303408095982F0E94C2062BE237E84EE250E4D3
S11303500E944E070E948F0670935F0260935E02B4
S11303600E942A0660E080E00E94200680915F02DD
S11303708F9380915E028F93DF92CF92DF93CF931E
S11303800E94D907862D972D0E944306FFEF24E390
S11303908CE0F15020408040E1F700C00000D7011C
S11303A08C9187BD809100019091010101979093F8
S11303B0010180930001BC01882777FD8095982F67
S11303C00E94C2069B01AC010F900F900F900F90FA
S11303D00F900F90C501B4010E948B0688230CF482
S11303E0A8CF59C08091000190910101BC018827D8
S11303F077FD8095982F0E94C2062BE237E84EE2E3
S113040050E40E944E070E948F0670935F0260932F
S11304105E020E942A0660E080E00E94200680912D
S11304205F028F9380915E028F93DF92CF92DF936E
S1130430CF930E94D907862D972D0E944306FFEF84
S113044024E38CE0F15020408040E1F700C000003C
S1130450D7018C9187BD20910001309101012F5F5C
S11304603F4F3093010120930001B901882777FDA4
S11304708095982F0E94C2069B01AC010F900F90AB
S11304800F900F900F900F90C501B4010E944A077E
S113049088230CF0A7CF10923A02309233022092B4
S11304A0320280913B02813009F4F6CE0F2EF7E13F
S11304B0BF2EF02D0F2EF8E1AF2EF02D5BC08091F2
S11304C03802909139020097D9F40E942A0660E01C
S11304D080E00E942006E1E7F1E0DE018B2D01902F
S11304E00D928A95E1F7CE010E944306BFEFE1EE3B
S11304F0F4E0B150E040F040E1F700C000003AC041
S113050081309105D9F40E942A0660E080E00E94BF
S11305102006E8E8F1E0DE018A2D01900D928A952B
S1130520E1F7CE010E9443062FEF81EE94E02150C3
S113053080409040E1F700C000001CC00297D1F455
S11305400E942A0660E080E00E942006E0EAF1E0D2
S1130550DE018B2D01900D928A95E1F7CE010E9468
S11305604306AFEFB1EEE4E0A150B040E040E1F764
S113057000C0000080913B02823009F4A0CF833098
S113058009F0A1C00F2EF7EBAF2EF1E0BF2EF02D36
S113059088248394912C6091000170910101882733
S11305A077FD8095982F0E94C2062BE237E84EE231
S11305B050E40E944E070E948F0670935F0260937E
S11305C05E020E942A0660E080E00E94200680917C
S11305D05F028F9380915E028F93BF92AF92DF93FD
S11305E0CF930E94D907842D952D0E9443068FEF47
S11305F091EEA4E081509040A040E1F700C00000DB
S11306000F900F900F900F900F900F9080913A02DF
S1130610813009F04DC08091000190910101BC012D
S1130620882777FD8095982F0E94C2062BE237E831
S11306304EE250E40E944E070E948F0670935F02C0
S113064060935E0261E080E00E94200680915F0278
S11306508F9380915E028F931F930F93DF93CF93B9
S11306600E94D907862D972D0E944306D7018C91AD
S113067087BD809100019091010101979093010140
S113068080930001BFEFE4E3FCE0B150E040F040B0
S1130690E1F700C000000F900F900F900F900F90A3
S11306A00F908091000190910101CA970CF0B3CF93
S11306B010923A02909233028092320280913B026D
S11306C0833009F468CF80913B02843009F09DC0E7
S11306D00F2EFDEDAF2EF1E0BF2EF02D8824839474
S11306E0912C6091000170910101882777FD80951C
S11306F0982F0E94C2062BE237E84EE250E40E9493
S11307004E070E948F0670935F0260935E020E9400
S11307102A0660E080E00E94200680915F028F93A9
S113072080915E028F93BF92AF92DF93CF930E942A
S1130730D907842D952D0E9443069FEFA1EEB4E0C6
S11307409150A040B040E1F700C000000F900F901E
S11307500F900F900F900F9080913A02813009F022
S113076049C08091000190910101BC01882777FD67
S11307708095982F0E94C2062BE237E84EE250E49F
S11307800E944E070E948F0670935F0260935E0280
S113079061E080E00E94200680915F028F93809147
S11307A05E028F931F930F93DF93CF930E94D90719
S11307B0862D972D0E9443062FEF84E39CE0215061
S11307C080409040E1F700C00000D7018C9187BDC4
S11307D08091000190910101019790930101809310
S11307E000010F900F900F900F900F900F90C797EC
S11307F00CF0B7CF10923A029092330280923202F8
S113080080913B02843009F46CCF80913B028530A7
S113081009F0A0CC0F2EF8EFAF2EF1E0BF2EF02D93
S113082088248394912C60910001709101018827A0
S113083077FD8095982F0E94C2062BE237E84EE29E
S113084050E40E944E070E948F0670935F026093EB
S11308505E020E942A0660E080E00E9420068091E9
S11308605F028F9380915E028F93BF92AF92DF936A
S1130870CF930E94D907842D952D0E944306FFEF44
S113088021EE84E0F15020408040E1F700C00000F8
S11308900F900F900F900F900F900F9080913A024D
S11308A0813009F049C08091000190910101BC019F
S11308B0882777FD8095982F0E94C2062BE237E89F
S11308C04EE250E40E944E070E948F0670935F022E
S11308D060935E0261E080E00E94200680915F02E6
S11308E08F9380915E028F931F930F93DF93CF9327
S11308F00E94D907862D972D0E944306BFEFE4E39B
S1130900FCE0B150E040F040E1F700C00000D70146
S11309108C9187BD80910001909101010197909382
S11309200101809300010F900F900F900F900F9092
S11309300F90C3970CF0B7CF10923A029092330203
S11309408092320280913B02853009F46CCF02CC54
S11309501F920F920FB60F9211248F9316BC1BB8DF
S11309608091000187BD8F910F900FBE0F901F9053
S113097018951F920F920FB60F9211248F939F9385
S11309808091360290913702019751F080913202A2
S113099090913302019721F080913A02813019F449
S11309A080E18BB901C01BB89F918F910F900FBE4E
S11309B00F901F9018951F920F920FB60F9211244B
S11309C02F933F938F939F9323B1277020933C02DF
S11309D0243009F04FC030913B02313039F480911A
S11309E0000187BD81E080933A02D2C080913D022C
S11309F0811106C031110CC081E080933B02C8C054
S1130A00813031F4311104C082E080933B02C0C0D4
S1130A108091380290913902009761F43230D1F418
S1130A208091000187BD81E080933A0283E0809346
S1130A303B02AEC08130910569F4323009F082C0C6
S1130A408091000187BD84E080933B0281E0809324
S1130A503A029EC0029709F075C0323009F072C0A4
S1130A608091000187BD85E080933B0281E0809303
S1130A703A028EC02330E9F481E090E0909337028B
S1130A808093360210923B0210923A028AE890E078
S1130A90909303018093020110923902109238025C
S1130AA010923502109234021092330210923202E4
S1130AB06FC02630C9F480913B02813009F044C0F4
S1130AC0809102019091030101978A3891052CF0DD
S1130AD090930301809302015BC08AE890E09093B5
S1130AE003018093020154C0253061F580913B02DB
S1130AF08130A1F480910201909103010196853B1C
S1130B0091052CF4909303018093020141C084EB7E
S1130B1090E090930301809302013AC0823071F512
S1130B2080913802909139020196833091052CF41A
S1130B3090933902809338022BC01092390210929C
S1130B40380226C02630B9F480913B028230B1F4D9
S1130B508091380290913902019799232CF0909357
S1130B6039028093380214C082E090E090933902F5
S1130B70809338020DC02550223050F480913D02FC
S1130B808F5F823018F480933D0202C010923D02C0
S1130B909F918F913F912F910F900FBE0F901F90B7
S1130BA01895169A000016980895CF93DF93D82FBE
S1130BB0662311F0149A01C01498159881B18F60BE
S1130BC081B9C2B1C07F8D2F82958F708C2B82B971
S1130BD00E94D105DF70DC2BD2B90E94D105CF6011
S1130BE0C2B9DF91CF910895882311F0149A01C0FE
S1130BF01498159A81B1807F81B9169A000090B13A
S1130C0016980000169A000080B19295907F8F701C
S1130C101698892B089580E00E94F4058823DCF35C
S1130C2000C000C080E00E94F4050895CF93C82F4F
S1130C300E940B0660E08C2F0E94D505CF91089589
S1130C40611104C080580E941606089580540E94C1
S1130C501606089581E00E9416060895CF93C82FC2
S1130C600E940B06CA3049F4803410F480E401C0B9
S1130C7080E080580E94160604C061E08C2F0E9418
S1130C80D505CF910895CF93DF93EC012196FC0114
S1130C908081882329F00E942E0689918111FBCF3F
S1130CA0DF91CF910895CF93C82F81B18F6781B918
S1130CB08FE99FE00197F1F700C00000119A109AA4
S1130CC00E94D10581EE94E00197F1F700C0000085
S1130CD00E94D10595E19A95F1F700000E94D10593
S1130CE085E18A95F1F7000010980E94D10595E1FD
S1130CF09A95F1F7000088E20E94160688E00E94A7
S1130D0016060E942A0686E00E9416068C2F0E9470
S1130D101606CF91089571D008F481E0089504D0A7
S1130D206894B111B1C0089594D088F09F5790F0A1
S1130D30B92F9927B751A0F0D1F0660F771F881FFC
S1130D40991F1AF0BA95C9F712C0B13081F09BD03F
S1130D50B1E0089598C0672F782F8827B85F39F0DD
S1130D60B93FCCF3869577956795B395D9F73EF45B
S1130D7090958095709561957F4F8F4F9F4F089503
S1130D80E89409C097FB3EF4909580957095619521
S1130D907F4F8F4F9F4F9923A9F0F92F96E9BB27D7
S1130DA09395F695879577956795B795F111F8CF53
S1130DB0FAF4BB0F11F460FF1BC06F5F7F4F8F4FBE
S1130DC09F4F16C0882311F096E911C0772321F0B4
S1130DD09EE8872F762F05C0662371F096E8862F4C
S1130DE070E060E02AF09A95660F771F881FDAF7A3
S1130DF0880F9695879597F90895990F0008550FD0
S1130E00AA0BE0E8FEEF16161706E807F907C0F08C
S1130E1012161306E407F50798F0621B730B840B94
S1130E20950B39F40A2661F0232B242B252B21F46E
S1130E3008950A2609F4A140A6958FEF811D811D0E
S1130E40089557FD9058440F551F59F05F3F71F0B6
S1130E504795880F97FB991F61F09F3F79F087951D
S1130E600895121613061406551FF2CF4695F1DFA6
S1130E7008C0161617061806991FF1CF8695710536
S1130E80610508940895E894BB2766277727CB016A
S1130E9097F90895B2DF08F48FEF08950BD078C066
S1130EA069D028F06ED018F0952309F05AC05FC0BD
S1130EB01124EACFC6DFA0F3959FD1F3950F50E03C
S1130EC0551F629FF001729FBB27F00DB11D639FF8
S1130ED0AA27F00DB11DAA1F649F6627B00DA11D9E
S1130EE0661F829F2227B00DA11D621F739FB00D44
S1130EF0A11D621F839FA00D611D221F749F3327B4
S1130F00A00D611D231F849F600D211D822F762F4C
S1130F106A2F11249F5750408AF0E1F088234AF049
S1130F20EE0FFF1FBB1F661F771F881F9150504095
S1130F30A9F79E3F510570F014C0A6CF5F3FECF3B4
S1130F40983EDCF3869577956795B795F795E79581
S1130F509F5FC1F7FE2B880F911D9695879597F992
S1130F60089597F99F6780E870E060E008959FEF27
S1130F7080EC089500240A9416161706180609062C
S1130F80089500240A9412161306140605060895FB
S1130F90092E0394000C11F4882352F0BB0F40F483
S1130FA0BF2B11F460FF04C06F5F7F4F8F4F9F4FC3
S1130FB00895AEE0B0E0EFEDF7E00C94810A0D89FE
S1130FC01E8986E08C831A8309838FEF9FE79E83B3
S1130FD08D83AE01475E5F4F6F89788DCE01019698
S1130FE00E94FB07EF81F885E00FF11F10822E9617
S1130FF0E4E00C949D0AACE0B0E0E1E0F8E00C948D
S1131000730A7C016B018A01FC01178216828381B9
S113101081FFBDC1CE0101964C01F7019381F60118
S113102093FD859193FF81916F01882309F4ABC1EE
S1131030853239F493FD859193FF81916F01853257
S113104029F4B70190E00E94E309E7CF512C312C39
S113105020E02032A0F48B3269F030F4803259F071
S1131060833269F420612CC08D3239F0803339F435
S1131070216026C02260246023C0286021C027FD8F
S113108027C030ED380F3A3078F426FF06C0FAE076
S11310905F9E300D1124532E13C08AE0389E300D0C
S11310A01124332E20620CC08E3221F426FD6BC134
S11310B0206406C08C3611F4206802C0883641F4DE
S11310C0F60193FD859193FF81916F018111C1CF49
S11310D0982F9F7D9554933028F40C5F1F4FFFE3A6
S11310E0F9830DC0833631F0833771F0833509F00D
S11310F05BC022C0F801808189830E5F1F4F4424A6
S11311004394512C540115C03801F2E06F0E711C48
S1131110F801A080B18026FF03C0652D70E002C0F5
S11311206FEF7FEFC5012C870E94D8092C01830142
S11311302C852F77222E17C03801F2E06F0E711C18
S1131140F801A080B18026FF03C0652D70E002C0C5
S11311506FEF7FEFC5012C870E94CD092C012C85F0
S11311602068222E830123FC1BC0832D90E04816A7
S11311705906B0F4B70180E290E00E94E3093A9482
S1131180F4CFF50127FC859127FE81915F01B7011A
S113119090E00E94E30931103A94F1E04F1A5108AB
S11311A04114510471F7E5C0843611F0893639F5DC
S11311B0F80127FF07C060817181828193810C5FF0
S11311C01F4F08C060817181882777FD8095982F13
S11311D00E5F1F4F2F76B22E97FF09C09095809512
S11311E0709561957F4F8F4F9F4F2068B22E2AE0F4
S11311F030E0A4010E94150AA82EA81844C085371F
S113120029F42F7EB22E2AE030E025C0F22FF97F98
S1131210BF2E8F36C1F018F4883579F0B4C080370A
S113122019F0883721F0AFC02F2F2061B22EB4FE01
S11312300DC08B2D8460B82E09C024FF0AC09F2FD7
S11312409660B92E06C028E030E005C020E130E009
S113125002C020E132E0F801B7FE07C0608171816D
S1131260828193810C5F1F4F06C06081718180E091
S113127090E00E5F1F4FA4010E94150AA82EA81823
S1131280FB2DFF77BF2EB6FE0BC02B2D2E7FA51492
S113129050F4B4FE0AC0B2FC08C02B2D2E7E05C04B
S11312A07A2C2B2D03C07A2C01C0752C24FF0DC081
S11312B0FE01EA0DF11D8081803311F4297E09C0FD
S11312C022FF06C07394739404C0822F867809F0B9
S11312D0739423FD13C020FF06C05A2C731418F412
S11312E0530C5718732C731468F4B70180E290E020
S11312F02C870E94E30973942C85F5CF731410F4A2
S1131300371801C0312C24FF12C0B70180E390E0EC
S11313102C870E94E3092C8522FF17C021FF03C0FC
S113132088E590E002C088E790E0B7010CC0822F06
S1131330867859F021FD02C080E201C08BE227FDCE
S11313408DE2B70190E00E94E309A51438F4B701D7
S113135080E390E00E94E3095A94F7CFAA94F40141
S1131360EA0DF11D8081B70190E00E94E309A1100C
S1131370F5CF332009F451CEB70180E290E00E940A
S1131380E3093A94F6CFF7018681978102C08FEF83
S11313909FEF2C96E2E10C948F0AFC0105906150BA
S11313A070400110D8F7809590958E0F9F1F089577
S11313B0FC016150704001900110D8F78095909520
S11313C08E0F9F1F08950F931F93CF93DF93182FB2
S11313D0092FEB018B8181FD03C08FEF9FEF20C0AC
S11313E082FF10C04E815F812C813D8142175307DB
S11313F07CF4E881F9819F012F5F3F4F3983288373
S1131400108306C0E885F985812F0995892B29F772
S11314102E813F812F5F3F4F3F832E83812F902F5B
S1131420DF91CF911F910F910895FA01AA272830D7
S113143051F1203181F1E8946F936E7F6E5F7F4F9D
S11314408F4F9F4FAF4FB1E03ED0B4E03CD0670F19
S1131450781F891F9A1FA11D680F791F8A1F911D6C
S1131460A11D6A0F711D811D911DA11D20D009F4BC
S113147068943F912AE0269F11243019305D3193FE
S1131480DEF6CF010895462F4770405D4193B3E0E7
S11314900FD0C9F7F6CF462F4F70405D4A3318F08E
S11314A0495D31FD4052419302D0A9F7EACFB4E03F
S11314B0A6959795879577956795BA95C9F70097F7
S11314C06105710508959B01AC010A2E0694579598
S11314D0479537952795BA95C9F7620F731F841FEF
S11314E0951FA01D08952F923F924F925F926F9285
S11314F07F928F929F92AF92BF92CF92DF92EF92A0
S1131500FF920F931F93CF93DF93CDB7DEB7CA1B20
S1131510DB0B0FB6F894DEBF0FBECDBF09942A884B
S1131520398848885F846E847D848C849B84AA84F3
S1131530B984C884DF80EE80FD800C811B81AA8180
S1131540B981CE0FD11D0FB6F894DEBF0FBECDBF4B
S10B1550ED010895F894FFCFAA
S113155842008A0041706167616E646F200A616E9F
S113156867756C6F3D256400202020436F6E662EDE
S11315782064656C20200A20616E67756C6F2020DA
S11315886469737061726F2000202020436F6E6657
S11315982E20706F722020200A20202076656C6F20
S11315A8636964616400456C696A6120656C2061E3
S11315B86E67756C6F200A616E67756C6F3D256484
S11315C800456C656769722076656C6F6369646150
S11315D864200A42616A6100456C65676972207615
S11315E8656C6F6369646164200A4D6564696100B0
S11315F8456C656769722076656C6F6369646164BC
S1131608200A416C74610056656C6F636964616497
S11316182042616A61200A616E67756C6F3D2564BA
S113162800616E67756C6F3D2564200A0056656C11
S11316386F6369646164204D65646961200A616E41
S113164867756C6F3D25640056656C6F63696461EA
S11316586420416C7461200A616E67756C6F3D2566
S113166864002020454C454354524F4E4943412081
S1131678200A2020444520504F54454E43494120D8
S105168820003C
S9030000FC
